{"src/supertoken/base/UUPSProxy.sol":{"UUPSProxy":{"abi":[{"inputs":[],"name":"Initialized","type":"error"},{"inputs":[],"name":"ZeroAddress","type":"error"},{"stateMutability":"payable","type":"fallback"},{"inputs":[{"internalType":"address","name":"initialAddress","type":"address"}],"name":"initializeProxy","outputs":[],"stateMutability":"nonpayable","type":"function"},{"stateMutability":"payable","type":"receive"}],"devdoc":{"author":"jtriley.eth","details":"`initializeProxy(address)` is called by the Super Token Factory The call to the factory should be in the same transaction to avoid being front run","kind":"dev","methods":{"initializeProxy(address)":{"details":"Called by the SuperTokenFactory contract on upgrade","params":{"initialAddress":"logic contract address"}}},"title":"UUPS Proxy implementation contract","version":1},"evm":{"bytecode":{"linkReferences":{},"object":"608060405234801561001057600080fd5b506101b1806100206000396000f3fe6080604052600436106100225760003560e01c80634a0687ef1461003957610031565b366100315761002f610059565b005b61002f610059565b34801561004557600080fd5b5061002f61005436600461014b565b61008b565b6100896100847f360894a13ba1a3210667c828492db98dca3e2076cc3735a920a3ca505d382bbc5490565b610127565b565b6001600160a01b0381166100b25760405163d92e233d60e01b815260040160405180910390fd5b60006100dc7f360894a13ba1a3210667c828492db98dca3e2076cc3735a920a3ca505d382bbc5490565b6001600160a01b031614610103576040516302ed543d60e51b815260040160405180910390fd5b7f360894a13ba1a3210667c828492db98dca3e2076cc3735a920a3ca505d382bbc55565b3660008037600080366000845af43d6000803e808015610146573d6000f35b3d6000fd5b60006020828403121561015d57600080fd5b81356001600160a01b038116811461017457600080fd5b939250505056fea2646970667358221220145257d48c8e38cd0b993a72ec834457b9af4c494636b7a79bd5dcbc5afd066564736f6c63430008110033","opcodes":"PUSH1 0x80 PUSH1 0x40 MSTORE CALLVALUE DUP1 ISZERO PUSH2 0x10 JUMPI PUSH1 0x0 DUP1 REVERT JUMPDEST POP PUSH2 0x1B1 DUP1 PUSH2 0x20 PUSH1 0x0 CODECOPY PUSH1 0x0 RETURN INVALID PUSH1 0x80 PUSH1 0x40 MSTORE PUSH1 0x4 CALLDATASIZE LT PUSH2 0x22 JUMPI PUSH1 0x0 CALLDATALOAD PUSH1 0xE0 SHR DUP1 PUSH4 0x4A0687EF EQ PUSH2 0x39 JUMPI PUSH2 0x31 JUMP JUMPDEST CALLDATASIZE PUSH2 0x31 JUMPI PUSH2 0x2F PUSH2 0x59 JUMP JUMPDEST STOP JUMPDEST PUSH2 0x2F PUSH2 0x59 JUMP JUMPDEST CALLVALUE DUP1 ISZERO PUSH2 0x45 JUMPI PUSH1 0x0 DUP1 REVERT JUMPDEST POP PUSH2 0x2F PUSH2 0x54 CALLDATASIZE PUSH1 0x4 PUSH2 0x14B JUMP JUMPDEST PUSH2 0x8B JUMP JUMPDEST PUSH2 0x89 PUSH2 0x84 PUSH32 0x360894A13BA1A3210667C828492DB98DCA3E2076CC3735A920A3CA505D382BBC SLOAD SWAP1 JUMP JUMPDEST PUSH2 0x127 JUMP JUMPDEST JUMP JUMPDEST PUSH1 0x1 PUSH1 0x1 PUSH1 0xA0 SHL SUB DUP2 AND PUSH2 0xB2 JUMPI PUSH1 0x40 MLOAD PUSH4 0xD92E233D PUSH1 0xE0 SHL DUP2 MSTORE PUSH1 0x4 ADD PUSH1 0x40 MLOAD DUP1 SWAP2 SUB SWAP1 REVERT JUMPDEST PUSH1 0x0 PUSH2 0xDC PUSH32 0x360894A13BA1A3210667C828492DB98DCA3E2076CC3735A920A3CA505D382BBC SLOAD SWAP1 JUMP JUMPDEST PUSH1 0x1 PUSH1 0x1 PUSH1 0xA0 SHL SUB AND EQ PUSH2 0x103 JUMPI PUSH1 0x40 MLOAD PUSH4 0x2ED543D PUSH1 0xE5 SHL DUP2 MSTORE PUSH1 0x4 ADD PUSH1 0x40 MLOAD DUP1 SWAP2 SUB SWAP1 REVERT JUMPDEST PUSH32 0x360894A13BA1A3210667C828492DB98DCA3E2076CC3735A920A3CA505D382BBC SSTORE JUMP JUMPDEST CALLDATASIZE PUSH1 0x0 DUP1 CALLDATACOPY PUSH1 0x0 DUP1 CALLDATASIZE PUSH1 0x0 DUP5 GAS DELEGATECALL RETURNDATASIZE PUSH1 0x0 DUP1 RETURNDATACOPY DUP1 DUP1 ISZERO PUSH2 0x146 JUMPI RETURNDATASIZE PUSH1 0x0 RETURN JUMPDEST RETURNDATASIZE PUSH1 0x0 REVERT JUMPDEST PUSH1 0x0 PUSH1 0x20 DUP3 DUP5 SUB SLT ISZERO PUSH2 0x15D JUMPI PUSH1 0x0 DUP1 REVERT JUMPDEST DUP2 CALLDATALOAD PUSH1 0x1 PUSH1 0x1 PUSH1 0xA0 SHL SUB DUP2 AND DUP2 EQ PUSH2 0x174 JUMPI PUSH1 0x0 DUP1 REVERT JUMPDEST SWAP4 SWAP3 POP POP POP JUMP INVALID LOG2 PUSH5 0x6970667358 0x22 SLT KECCAK256 EQ MSTORE JUMPI 0xD4 DUP13 DUP15 CODESIZE 0xCD SIGNEXTEND SWAP10 GASPRICE PUSH19 0xEC834457B9AF4C494636B7A79BD5DCBC5AFD06 PUSH6 0x64736F6C6343 STOP ADDMOD GT STOP CALLER "},"gasEstimates":{"creation":{"codeDepositCost":"86600","executionCost":"135","totalCost":"86735"},"external":{"":"infinite","initializeProxy(address)":"24539"},"internal":{"_implementation()":"infinite"}},"methodIdentifiers":{"initializeProxy(address)":"4a0687ef"}},"storageLayout":{"storage":[],"types":null},"userdoc":{"errors":{"Initialized()":[{"notice":"Thrown when the logic contract has been set"}],"ZeroAddress()":[{"notice":"Thrown when the logic contract address is zero"}]},"kind":"user","methods":{"initializeProxy(address)":{"notice":"Stores the logic contract address only once."}},"notice":"Stores the logic contract's address at the _IMPLEMENTATION_SLOT","version":1}}}}