{
  "_format": "hh-sol-artifact-1",
  "contractName": "MissionControlStream",
  "sourceName": "src/MissionControlStream.sol",
  "abi": [
    {
      "inputs": [
        {
          "internalType": "contract ISuperfluid",
          "name": "_host",
          "type": "address"
        },
        {
          "internalType": "contract ISuperToken",
          "name": "_acceptedToken1",
          "type": "address"
        },
        {
          "internalType": "contract ISuperToken",
          "name": "_acceptedToken2",
          "type": "address"
        },
        {
          "internalType": "address",
          "name": "_missionControl",
          "type": "address"
        },
        {
          "internalType": "string",
          "name": "_registrationKey",
          "type": "string"
        }
      ],
      "stateMutability": "nonpayable",
      "type": "constructor"
    },
    {
      "inputs": [],
      "name": "EmptyTiles",
      "type": "error"
    },
    {
      "inputs": [],
      "name": "NotCFAv1",
      "type": "error"
    },
    {
      "inputs": [],
      "name": "NotHost",
      "type": "error"
    },
    {
      "inputs": [],
      "name": "NotSuperToken",
      "type": "error"
    },
    {
      "inputs": [],
      "name": "ZeroAddress",
      "type": "error"
    },
    {
      "anonymous": false,
      "inputs": [
        {
          "indexed": true,
          "internalType": "address",
          "name": "previousOwner",
          "type": "address"
        },
        {
          "indexed": true,
          "internalType": "address",
          "name": "newOwner",
          "type": "address"
        }
      ],
      "name": "OwnershipTransferred",
      "type": "event"
    },
    {
      "anonymous": false,
      "inputs": [
        {
          "indexed": true,
          "internalType": "address",
          "name": "sender",
          "type": "address"
        }
      ],
      "name": "TerminationCallReverted",
      "type": "event"
    },
    {
      "inputs": [],
      "name": "acceptedToken1",
      "outputs": [
        {
          "internalType": "contract ISuperToken",
          "name": "",
          "type": "address"
        }
      ],
      "stateMutability": "view",
      "type": "function"
    },
    {
      "inputs": [],
      "name": "acceptedToken2",
      "outputs": [
        {
          "internalType": "contract ISuperToken",
          "name": "",
          "type": "address"
        }
      ],
      "stateMutability": "view",
      "type": "function"
    },
    {
      "inputs": [
        {
          "internalType": "contract ISuperToken",
          "name": "superToken",
          "type": "address"
        },
        {
          "internalType": "address",
          "name": "agreementClass",
          "type": "address"
        },
        {
          "internalType": "bytes32",
          "name": "",
          "type": "bytes32"
        },
        {
          "internalType": "bytes",
          "name": "agreementData",
          "type": "bytes"
        },
        {
          "internalType": "bytes",
          "name": "",
          "type": "bytes"
        },
        {
          "internalType": "bytes",
          "name": "ctx",
          "type": "bytes"
        }
      ],
      "name": "afterAgreementCreated",
      "outputs": [
        {
          "internalType": "bytes",
          "name": "newCtx",
          "type": "bytes"
        }
      ],
      "stateMutability": "nonpayable",
      "type": "function"
    },
    {
      "inputs": [
        {
          "internalType": "contract ISuperToken",
          "name": "superToken",
          "type": "address"
        },
        {
          "internalType": "address",
          "name": "agreementClass",
          "type": "address"
        },
        {
          "internalType": "bytes32",
          "name": "",
          "type": "bytes32"
        },
        {
          "internalType": "bytes",
          "name": "agreementData",
          "type": "bytes"
        },
        {
          "internalType": "bytes",
          "name": "",
          "type": "bytes"
        },
        {
          "internalType": "bytes",
          "name": "ctx",
          "type": "bytes"
        }
      ],
      "name": "afterAgreementTerminated",
      "outputs": [
        {
          "internalType": "bytes",
          "name": "",
          "type": "bytes"
        }
      ],
      "stateMutability": "nonpayable",
      "type": "function"
    },
    {
      "inputs": [
        {
          "internalType": "contract ISuperToken",
          "name": "superToken",
          "type": "address"
        },
        {
          "internalType": "address",
          "name": "agreementClass",
          "type": "address"
        },
        {
          "internalType": "bytes32",
          "name": "",
          "type": "bytes32"
        },
        {
          "internalType": "bytes",
          "name": "agreementData",
          "type": "bytes"
        },
        {
          "internalType": "bytes",
          "name": "cbdata",
          "type": "bytes"
        },
        {
          "internalType": "bytes",
          "name": "ctx",
          "type": "bytes"
        }
      ],
      "name": "afterAgreementUpdated",
      "outputs": [
        {
          "internalType": "bytes",
          "name": "newCtx",
          "type": "bytes"
        }
      ],
      "stateMutability": "nonpayable",
      "type": "function"
    },
    {
      "inputs": [
        {
          "internalType": "contract ISuperToken",
          "name": "superToken",
          "type": "address"
        },
        {
          "internalType": "address",
          "name": "to",
          "type": "address"
        },
        {
          "internalType": "uint256",
          "name": "amount",
          "type": "uint256"
        }
      ],
      "name": "approve",
      "outputs": [],
      "stateMutability": "nonpayable",
      "type": "function"
    },
    {
      "inputs": [
        {
          "internalType": "contract ISuperToken",
          "name": "",
          "type": "address"
        },
        {
          "internalType": "address",
          "name": "",
          "type": "address"
        },
        {
          "internalType": "bytes32",
          "name": "",
          "type": "bytes32"
        },
        {
          "internalType": "bytes",
          "name": "",
          "type": "bytes"
        },
        {
          "internalType": "bytes",
          "name": "",
          "type": "bytes"
        }
      ],
      "name": "beforeAgreementCreated",
      "outputs": [
        {
          "internalType": "bytes",
          "name": "",
          "type": "bytes"
        }
      ],
      "stateMutability": "view",
      "type": "function"
    },
    {
      "inputs": [
        {
          "internalType": "contract ISuperToken",
          "name": "",
          "type": "address"
        },
        {
          "internalType": "address",
          "name": "",
          "type": "address"
        },
        {
          "internalType": "bytes32",
          "name": "",
          "type": "bytes32"
        },
        {
          "internalType": "bytes",
          "name": "",
          "type": "bytes"
        },
        {
          "internalType": "bytes",
          "name": "",
          "type": "bytes"
        }
      ],
      "name": "beforeAgreementTerminated",
      "outputs": [
        {
          "internalType": "bytes",
          "name": "",
          "type": "bytes"
        }
      ],
      "stateMutability": "view",
      "type": "function"
    },
    {
      "inputs": [
        {
          "internalType": "contract ISuperToken",
          "name": "superToken",
          "type": "address"
        },
        {
          "internalType": "address",
          "name": "",
          "type": "address"
        },
        {
          "internalType": "bytes32",
          "name": "",
          "type": "bytes32"
        },
        {
          "internalType": "bytes",
          "name": "agreementData",
          "type": "bytes"
        },
        {
          "internalType": "bytes",
          "name": "",
          "type": "bytes"
        }
      ],
      "name": "beforeAgreementUpdated",
      "outputs": [
        {
          "internalType": "bytes",
          "name": "cbdata",
          "type": "bytes"
        }
      ],
      "stateMutability": "view",
      "type": "function"
    },
    {
      "inputs": [],
      "name": "cfa",
      "outputs": [
        {
          "internalType": "contract IConstantFlowAgreementV1",
          "name": "",
          "type": "address"
        }
      ],
      "stateMutability": "view",
      "type": "function"
    },
    {
      "inputs": [
        {
          "internalType": "address",
          "name": "superToken",
          "type": "address"
        },
        {
          "internalType": "address",
          "name": "player",
          "type": "address"
        }
      ],
      "name": "getFlowRate",
      "outputs": [
        {
          "internalType": "int96",
          "name": "",
          "type": "int96"
        }
      ],
      "stateMutability": "view",
      "type": "function"
    },
    {
      "inputs": [],
      "name": "host",
      "outputs": [
        {
          "internalType": "contract ISuperfluid",
          "name": "",
          "type": "address"
        }
      ],
      "stateMutability": "view",
      "type": "function"
    },
    {
      "inputs": [],
      "name": "missionControl",
      "outputs": [
        {
          "internalType": "contract IMissionControlExtension",
          "name": "",
          "type": "address"
        }
      ],
      "stateMutability": "view",
      "type": "function"
    },
    {
      "inputs": [],
      "name": "owner",
      "outputs": [
        {
          "internalType": "address",
          "name": "",
          "type": "address"
        }
      ],
      "stateMutability": "view",
      "type": "function"
    },
    {
      "inputs": [],
      "name": "renounceOwnership",
      "outputs": [],
      "stateMutability": "nonpayable",
      "type": "function"
    },
    {
      "inputs": [
        {
          "internalType": "address",
          "name": "newOwner",
          "type": "address"
        }
      ],
      "name": "transferOwnership",
      "outputs": [],
      "stateMutability": "nonpayable",
      "type": "function"
    }
  ],
  "bytecode": "0x6101206040523480156200001257600080fd5b5060405162001c2538038062001c25833981016040819052620000359162000267565b6200004033620001c2565b6001600160a01b03851615806200005e57506001600160a01b038416155b806200007157506001600160a01b038316155b806200008457506001600160a01b038216155b15620000a35760405163d92e233d60e01b815260040160405180910390fd5b6001600160a01b0385166080819052604051635b69006f60e11b81527fa9214cc96615e0085d3bb077758db69497dc2dce3b2b1e97bc93c3d18d83efd3600482015263b6d200de90602401602060405180830381865afa1580156200010c573d6000803e3d6000fd5b505050506040513d601f19601f8201168201806040525081019062000132919062000378565b6001600160a01b0390811660a05284811660c05283811660e0528281166101005260805160405163bd1c448b60e01b815291169063bd1c448b9062000183906411000000019085906004016200039f565b600060405180830381600087803b1580156200019e57600080fd5b505af1158015620001b3573d6000803e3d6000fd5b505050505050505050620003db565b600080546001600160a01b038381166001600160a01b0319831681178455604051919092169283917f8be0079c531659141344cd1fd0a4f28419497f9722a3daafe3b4186f6b6457e09190a35050565b6001600160a01b03811681146200022857600080fd5b50565b634e487b7160e01b600052604160045260246000fd5b60005b838110156200025e57818101518382015260200162000244565b50506000910152565b600080600080600060a086880312156200028057600080fd5b85516200028d8162000212565b6020870151909550620002a08162000212565b6040870151909450620002b38162000212565b6060870151909350620002c68162000212565b60808701519092506001600160401b0380821115620002e457600080fd5b818801915088601f830112620002f957600080fd5b8151818111156200030e576200030e6200022b565b604051601f8201601f19908116603f011681019083821181831017156200033957620003396200022b565b816040528281528b60208487010111156200035357600080fd5b6200036683602083016020880162000241565b80955050505050509295509295909350565b6000602082840312156200038b57600080fd5b8151620003988162000212565b9392505050565b8281526040602082015260008251806040840152620003c681606085016020870162000241565b601f01601f1916919091016060019392505050565b60805160a05160c05160e051610100516117b86200046d600039600081816101b1015281816104af0152818161069f0152610a2801526000818161026f0152610d490152600081816101fc0152610d0e01526000818161010a0152610c920152600081816102a9015281816102d801528181610396015281816105cc01528181610853015261093901526117b86000f3fe608060405234801561001057600080fd5b50600436106101005760003560e01c80638da5cb5b11610097578063e1f21c6711610066578063e1f21c6714610257578063e28f765c1461026a578063f2fde38b14610291578063f437bc59146102a457600080fd5b80638da5cb5b146101e6578063bf7788a7146101f7578063c94268841461021e578063d86ed3e51461024457600080fd5b80635f9e7d77116100d35780635f9e7d771461018f578063715018a6146101a25780637164b8bf146101ac578063884d1f40146101d357600080fd5b80631054df8c14610105578063230dbd291461014957806330d9c9151461016957806353c11f991461017c575b600080fd5b61012c7f000000000000000000000000000000000000000000000000000000000000000081565b6040516001600160a01b0390911681526020015b60405180910390f35b61015c610157366004610eb9565b6102cb565b6040516101409190610fa8565b61015c610177366004610fdb565b610557565b61015c61018a366004610eb9565b6105bf565b61015c61019d366004610fdb565b610777565b6101aa6107de565b005b61012c7f000000000000000000000000000000000000000000000000000000000000000081565b61015c6101e1366004610fdb565b6107f2565b6000546001600160a01b031661012c565b61012c7f000000000000000000000000000000000000000000000000000000000000000081565b61023161022c36600461107a565b610833565b604051600b9190910b8152602001610140565b61015c610252366004610eb9565b610846565b6101aa6102653660046110b3565b610ac6565b61012c7f000000000000000000000000000000000000000000000000000000000000000081565b6101aa61029f3660046110f4565b610b47565b61012c7f000000000000000000000000000000000000000000000000000000000000000081565b6060336001600160a01b037f0000000000000000000000000000000000000000000000000000000000000000161461031657604051638ff4f0c960e01b815260040160405180910390fd5b61031f89610bc0565b61033c576040516365e170d960e01b815260040160405180910390fd5b82828080601f01602080910402602001604051908101604052809392919081815260200183838082843760009201919091525092935061037f9250610e2d915050565b604051631fb6491d60e11b81526001600160a01b037f00000000000000000000000000000000000000000000000000000000000000001690633f6c923a906103cd9087908790600401611111565b600060405180830381865afa1580156103ea573d6000803e3d6000fd5b505050506040513d6000823e601f3d908101601f191682016040526104129190810190611279565b60a001518060200190518101906104299190611489565b6020830152808252511580156104425750602081015151155b1561046057604051634c9d076b60e01b815260040160405180910390fd5b61046a8888610c4c565b6001600160a01b031660408201526104848587018761155c565b600b0b6060820152604081015161049c908c90610c62565b8160800190600b0b9081600b0b815250507f00000000000000000000000000000000000000000000000000000000000000006001600160a01b0316633742f66b8c836040015184600001518560200151866060015187608001516040518763ffffffff1660e01b8152600401610517969594939291906115ee565b600060405180830381600087803b15801561053157600080fd5b505af1158015610545573d6000803e3d6000fd5b50505050509998505050505050505050565b60405162461bcd60e51b815260206004820152602f60248201527f556e737570706f727465642063616c6c6261636b202d204265666f726520416760448201526e1c99595b595b9d0810dc99585d1959608a1b60648201526060906084015b60405180910390fd5b6060336001600160a01b037f0000000000000000000000000000000000000000000000000000000000000000161461060a57604051638ff4f0c960e01b815260040160405180910390fd5b6106138a610d0a565b1580610625575061062389610bc0565b155b156106695782828080601f01602080910402602001604051908101604052809392919081815260200183838082843760009201919091525092935061076a92505050565b60006106758888610c4c565b6040516304f2885160e51b81526001600160a01b038d8116600483015280831660248301529192507f000000000000000000000000000000000000000000000000000000000000000090911690639e510a2090604401600060405180830381600087803b1580156106e557600080fd5b505af19250505080156106f6575060015b61072f576040516001600160a01b038216907f1afd11d74e4d4de865007dd1dd73297d45c2c4651efaa0367112b9627adb9f5f90600090a25b83838080601f016020809104026020016040519081016040528093929190818152602001838380828437600092019190915250929450505050505b9998505050505050505050565b60405162461bcd60e51b815260206004820152603360248201527f556e737570706f727465642063616c6c6261636b202d20204265666f7265204160448201527219dc99595b595b9d0815195c9b5a5b985d1959606a1b60648201526060906084016105b6565b6107e6610d83565b6107f06000610ddd565b565b6060610807886108028787610c4c565b610c62565b60408051600b9290920b6020830152016040516020818303038152906040529050979650505050505050565b600061083f8383610c62565b9392505050565b6060336001600160a01b037f0000000000000000000000000000000000000000000000000000000000000000161461089157604051638ff4f0c960e01b815260040160405180910390fd5b898961089c82610d0a565b6108b95760405163134d673960e01b815260040160405180910390fd5b6108c281610bc0565b6108df576040516365e170d960e01b815260040160405180910390fd5b84848080601f0160208091040260200160405190810160405280939291908181526020018383808284376000920191909152509295506109229250610e2d915050565b604051631fb6491d60e11b81526001600160a01b037f00000000000000000000000000000000000000000000000000000000000000001690633f6c923a906109709089908990600401611111565b600060405180830381865afa15801561098d573d6000803e3d6000fd5b505050506040513d6000823e601f3d908101601f191682016040526109b59190810190611279565b60a001518060200190518101906109cc9190611694565b808252516000036109f057604051634c9d076b60e01b815260040160405180910390fd5b6109fa8a8a610c4c565b6001600160a01b031660408201819052610a15908e90610c62565b8160800190600b0b9081600b0b815250507f00000000000000000000000000000000000000000000000000000000000000006001600160a01b031663c4bb36ad8e8360400151846000015185608001516040518563ffffffff1660e01b8152600401610a8494939291906116c9565b600060405180830381600087803b158015610a9e57600080fd5b505af1158015610ab2573d6000803e3d6000fd5b505050505050509998505050505050505050565b610ace610d83565b60405163095ea7b360e01b81526001600160a01b0383811660048301526024820183905284169063095ea7b3906044016020604051808303816000875af1158015610b1d573d6000803e3d6000fd5b505050506040513d601f19601f82011682018060405250810190610b419190611709565b50505050565b610b4f610d83565b6001600160a01b038116610bb45760405162461bcd60e51b815260206004820152602660248201527f4f776e61626c653a206e6577206f776e657220697320746865207a65726f206160448201526564647265737360d01b60648201526084016105b6565b610bbd81610ddd565b50565b60007fa9214cc96615e0085d3bb077758db69497dc2dce3b2b1e97bc93c3d18d83efd3826001600160a01b0316637730599e6040518163ffffffff1660e01b8152600401602060405180830381865afa158015610c21573d6000803e3d6000fd5b505050506040513d601f19601f82011682018060405250810190610c45919061172b565b1492915050565b6000610c5a8284018461107a565b509392505050565b604051631cd43d1160e31b81526001600160a01b03838116600483015282811660248301523060448301526000917f00000000000000000000000000000000000000000000000000000000000000009091169063e6a1e88890606401608060405180830381865afa158015610cdb573d6000803e3d6000fd5b505050506040513d601f19601f82011682018060405250810190610cff9190611744565b509095945050505050565b60007f00000000000000000000000000000000000000000000000000000000000000006001600160a01b0316826001600160a01b03161480610d7d57507f00000000000000000000000000000000000000000000000000000000000000006001600160a01b0316826001600160a01b0316145b92915050565b6000546001600160a01b031633146107f05760405162461bcd60e51b815260206004820181905260248201527f4f776e61626c653a2063616c6c6572206973206e6f7420746865206f776e657260448201526064016105b6565b600080546001600160a01b038381166001600160a01b0319831681178455604051919092169283917f8be0079c531659141344cd1fd0a4f28419497f9722a3daafe3b4186f6b6457e09190a35050565b6040805160a08101825260608082526020820181905260009282018390528101829052608081019190915290565b6001600160a01b0381168114610bbd57600080fd5b60008083601f840112610e8257600080fd5b50813567ffffffffffffffff811115610e9a57600080fd5b602083019150836020828501011115610eb257600080fd5b9250929050565b600080600080600080600080600060c08a8c031215610ed757600080fd5b8935610ee281610e5b565b985060208a0135610ef281610e5b565b975060408a0135965060608a013567ffffffffffffffff80821115610f1657600080fd5b610f228d838e01610e70565b909850965060808c0135915080821115610f3b57600080fd5b610f478d838e01610e70565b909650945060a08c0135915080821115610f6057600080fd5b50610f6d8c828d01610e70565b915080935050809150509295985092959850929598565b60005b83811015610f9f578181015183820152602001610f87565b50506000910152565b6020815260008251806020840152610fc7816040850160208701610f84565b601f01601f19169190910160400192915050565b600080600080600080600060a0888a031215610ff657600080fd5b873561100181610e5b565b9650602088013561101181610e5b565b955060408801359450606088013567ffffffffffffffff8082111561103557600080fd5b6110418b838c01610e70565b909650945060808a013591508082111561105a57600080fd5b506110678a828b01610e70565b989b979a50959850939692959293505050565b6000806040838503121561108d57600080fd5b823561109881610e5b565b915060208301356110a881610e5b565b809150509250929050565b6000806000606084860312156110c857600080fd5b83356110d381610e5b565b925060208401356110e381610e5b565b929592945050506040919091013590565b60006020828403121561110657600080fd5b813561083f81610e5b565b60208152816020820152818360408301376000818301604090810191909152601f909201601f19160101919050565b634e487b7160e01b600052604160045260246000fd5b604051610160810167ffffffffffffffff8111828210171561117a5761117a611140565b60405290565b6040516060810167ffffffffffffffff8111828210171561117a5761117a611140565b604051601f8201601f1916810167ffffffffffffffff811182821017156111cc576111cc611140565b604052919050565b805160ff811681146111e557600080fd5b919050565b80516111e581610e5b565b80516001600160e01b0319811681146111e557600080fd5b600082601f83011261121e57600080fd5b815167ffffffffffffffff81111561123857611238611140565b61124b601f8201601f19166020016111a3565b81815284602083860101111561126057600080fd5b611271826020830160208701610f84565b949350505050565b60006020828403121561128b57600080fd5b815167ffffffffffffffff808211156112a357600080fd5b9083019061016082860312156112b857600080fd5b6112c0611156565b6112c9836111d4565b81526112d7602084016111d4565b6020820152604083015160408201526112f2606084016111ea565b6060820152611303608084016111f5565b608082015260a08301518281111561131a57600080fd5b6113268782860161120d565b60a08301525060c083015160c082015260e083015160e082015261010091508183015182820152610120915061135d8284016111ea565b8282015261014091506113718284016111ea565b91810191909152949350505050565b600067ffffffffffffffff82111561139a5761139a611140565b5060051b60200190565b6000606082840312156113b657600080fd5b6113be611180565b905081518152602082015160208201526040820151604082015292915050565b600082601f8301126113ef57600080fd5b815160206114046113ff83611380565b6111a3565b82815260a0928302850182019282820191908785111561142357600080fd5b8387015b8581101561147c5781818a03121561143f5760008081fd5b611447611180565b6114518a836113a4565b8152606082015186820152608082015161146a81610e5b565b60408201528452928401928101611427565b5090979650505050505050565b6000806040838503121561149c57600080fd5b825167ffffffffffffffff808211156114b457600080fd5b6114c0868387016113de565b93506020915081850151818111156114d757600080fd5b85019050601f810186136114ea57600080fd5b80516114f86113ff82611380565b8181526060918202830184019184820191908984111561151757600080fd5b938501935b8385101561153d5761152e8a866113a4565b8352938401939185019161151c565b5080955050505050509250929050565b80600b0b8114610bbd57600080fd5b60006020828403121561156e57600080fd5b813561083f8161154d565b600081518084526020808501945080840160005b838110156115e35781516115b68882518051825260208082015190830152604090810151910152565b808401516060890152604001516001600160a01b0316608088015260a0909601959082019060010161158d565b509495945050505050565b600060018060a01b03808916835260208189168185015260c0604085015261161960c0850189611579565b91506060848303818601528288518085528385019150838a01945060005b8181101561166e5761165e8387518051825260208082015190830152604090810151910152565b9484019491830191600101611637565b50508094505050505083600b0b608083015282600b0b60a0830152979650505050505050565b6000602082840312156116a657600080fd5b815167ffffffffffffffff8111156116bd57600080fd5b611271848285016113de565b6001600160a01b038581168252841660208201526080604082018190526000906116f590830185611579565b905082600b0b606083015295945050505050565b60006020828403121561171b57600080fd5b8151801515811461083f57600080fd5b60006020828403121561173d57600080fd5b5051919050565b6000806000806080858703121561175a57600080fd5b84519350602085015161176c8161154d565b604086015160609096015194979096509250505056fea26469706673582212203bc599dd755e7e72fd774c1dd98c6792946a16bbb7f8961cc373996985428c3064736f6c63430008110033",
  "linkReferences": {},
  "deployedLinkReferences": {}
}