{
  "_format": "hh-sol-artifact-1",
  "contractName": "MissionControlStream",
  "sourceName": "src/MissionControlStream.sol",
  "abi": [
    {
      "inputs": [],
      "name": "EmptyTiles",
      "type": "error"
    },
    {
      "inputs": [],
      "name": "NotCFAv1",
      "type": "error"
    },
    {
      "inputs": [],
      "name": "NotHost",
      "type": "error"
    },
    {
      "inputs": [],
      "name": "NotSuperToken",
      "type": "error"
    },
    {
      "inputs": [],
      "name": "ZeroAddress",
      "type": "error"
    },
    {
      "anonymous": false,
      "inputs": [
        {
          "indexed": false,
          "internalType": "uint8",
          "name": "version",
          "type": "uint8"
        }
      ],
      "name": "Initialized",
      "type": "event"
    },
    {
      "anonymous": false,
      "inputs": [
        {
          "indexed": true,
          "internalType": "address",
          "name": "previousOwner",
          "type": "address"
        },
        {
          "indexed": true,
          "internalType": "address",
          "name": "newOwner",
          "type": "address"
        }
      ],
      "name": "OwnershipTransferred",
      "type": "event"
    },
    {
      "anonymous": false,
      "inputs": [
        {
          "indexed": true,
          "internalType": "address",
          "name": "sender",
          "type": "address"
        }
      ],
      "name": "TerminationCallReverted",
      "type": "event"
    },
    {
      "inputs": [],
      "name": "acceptedToken1",
      "outputs": [
        {
          "internalType": "contract ISuperToken",
          "name": "",
          "type": "address"
        }
      ],
      "stateMutability": "view",
      "type": "function"
    },
    {
      "inputs": [],
      "name": "acceptedToken2",
      "outputs": [
        {
          "internalType": "contract ISuperToken",
          "name": "",
          "type": "address"
        }
      ],
      "stateMutability": "view",
      "type": "function"
    },
    {
      "inputs": [
        {
          "internalType": "contract ISuperToken",
          "name": "superToken",
          "type": "address"
        },
        {
          "internalType": "address",
          "name": "agreementClass",
          "type": "address"
        },
        {
          "internalType": "bytes32",
          "name": "",
          "type": "bytes32"
        },
        {
          "internalType": "bytes",
          "name": "agreementData",
          "type": "bytes"
        },
        {
          "internalType": "bytes",
          "name": "",
          "type": "bytes"
        },
        {
          "internalType": "bytes",
          "name": "ctx",
          "type": "bytes"
        }
      ],
      "name": "afterAgreementCreated",
      "outputs": [
        {
          "internalType": "bytes",
          "name": "newCtx",
          "type": "bytes"
        }
      ],
      "stateMutability": "nonpayable",
      "type": "function"
    },
    {
      "inputs": [
        {
          "internalType": "contract ISuperToken",
          "name": "superToken",
          "type": "address"
        },
        {
          "internalType": "address",
          "name": "agreementClass",
          "type": "address"
        },
        {
          "internalType": "bytes32",
          "name": "",
          "type": "bytes32"
        },
        {
          "internalType": "bytes",
          "name": "agreementData",
          "type": "bytes"
        },
        {
          "internalType": "bytes",
          "name": "",
          "type": "bytes"
        },
        {
          "internalType": "bytes",
          "name": "ctx",
          "type": "bytes"
        }
      ],
      "name": "afterAgreementTerminated",
      "outputs": [
        {
          "internalType": "bytes",
          "name": "",
          "type": "bytes"
        }
      ],
      "stateMutability": "nonpayable",
      "type": "function"
    },
    {
      "inputs": [
        {
          "internalType": "contract ISuperToken",
          "name": "superToken",
          "type": "address"
        },
        {
          "internalType": "address",
          "name": "agreementClass",
          "type": "address"
        },
        {
          "internalType": "bytes32",
          "name": "",
          "type": "bytes32"
        },
        {
          "internalType": "bytes",
          "name": "agreementData",
          "type": "bytes"
        },
        {
          "internalType": "bytes",
          "name": "cbdata",
          "type": "bytes"
        },
        {
          "internalType": "bytes",
          "name": "ctx",
          "type": "bytes"
        }
      ],
      "name": "afterAgreementUpdated",
      "outputs": [
        {
          "internalType": "bytes",
          "name": "newCtx",
          "type": "bytes"
        }
      ],
      "stateMutability": "nonpayable",
      "type": "function"
    },
    {
      "inputs": [
        {
          "internalType": "contract ISuperToken",
          "name": "superToken",
          "type": "address"
        },
        {
          "internalType": "address",
          "name": "to",
          "type": "address"
        },
        {
          "internalType": "uint256",
          "name": "amount",
          "type": "uint256"
        }
      ],
      "name": "approve",
      "outputs": [],
      "stateMutability": "nonpayable",
      "type": "function"
    },
    {
      "inputs": [
        {
          "internalType": "contract ISuperToken",
          "name": "",
          "type": "address"
        },
        {
          "internalType": "address",
          "name": "",
          "type": "address"
        },
        {
          "internalType": "bytes32",
          "name": "",
          "type": "bytes32"
        },
        {
          "internalType": "bytes",
          "name": "",
          "type": "bytes"
        },
        {
          "internalType": "bytes",
          "name": "",
          "type": "bytes"
        }
      ],
      "name": "beforeAgreementCreated",
      "outputs": [
        {
          "internalType": "bytes",
          "name": "",
          "type": "bytes"
        }
      ],
      "stateMutability": "view",
      "type": "function"
    },
    {
      "inputs": [
        {
          "internalType": "contract ISuperToken",
          "name": "",
          "type": "address"
        },
        {
          "internalType": "address",
          "name": "",
          "type": "address"
        },
        {
          "internalType": "bytes32",
          "name": "",
          "type": "bytes32"
        },
        {
          "internalType": "bytes",
          "name": "",
          "type": "bytes"
        },
        {
          "internalType": "bytes",
          "name": "",
          "type": "bytes"
        }
      ],
      "name": "beforeAgreementTerminated",
      "outputs": [
        {
          "internalType": "bytes",
          "name": "",
          "type": "bytes"
        }
      ],
      "stateMutability": "view",
      "type": "function"
    },
    {
      "inputs": [
        {
          "internalType": "contract ISuperToken",
          "name": "superToken",
          "type": "address"
        },
        {
          "internalType": "address",
          "name": "",
          "type": "address"
        },
        {
          "internalType": "bytes32",
          "name": "",
          "type": "bytes32"
        },
        {
          "internalType": "bytes",
          "name": "agreementData",
          "type": "bytes"
        },
        {
          "internalType": "bytes",
          "name": "",
          "type": "bytes"
        }
      ],
      "name": "beforeAgreementUpdated",
      "outputs": [
        {
          "internalType": "bytes",
          "name": "cbdata",
          "type": "bytes"
        }
      ],
      "stateMutability": "view",
      "type": "function"
    },
    {
      "inputs": [],
      "name": "cfa",
      "outputs": [
        {
          "internalType": "contract IConstantFlowAgreementV1",
          "name": "",
          "type": "address"
        }
      ],
      "stateMutability": "view",
      "type": "function"
    },
    {
      "inputs": [
        {
          "internalType": "address",
          "name": "superToken",
          "type": "address"
        },
        {
          "internalType": "address",
          "name": "player",
          "type": "address"
        }
      ],
      "name": "getFlowRate",
      "outputs": [
        {
          "internalType": "int96",
          "name": "",
          "type": "int96"
        }
      ],
      "stateMutability": "view",
      "type": "function"
    },
    {
      "inputs": [],
      "name": "host",
      "outputs": [
        {
          "internalType": "contract ISuperfluid",
          "name": "",
          "type": "address"
        }
      ],
      "stateMutability": "view",
      "type": "function"
    },
    {
      "inputs": [
        {
          "internalType": "address",
          "name": "_host",
          "type": "address"
        },
        {
          "internalType": "address",
          "name": "_acceptedToken1",
          "type": "address"
        },
        {
          "internalType": "address",
          "name": "_acceptedToken2",
          "type": "address"
        },
        {
          "internalType": "address",
          "name": "_missionControl",
          "type": "address"
        }
      ],
      "name": "initialize",
      "outputs": [],
      "stateMutability": "nonpayable",
      "type": "function"
    },
    {
      "inputs": [],
      "name": "missionControl",
      "outputs": [
        {
          "internalType": "contract IMissionControlExtension",
          "name": "",
          "type": "address"
        }
      ],
      "stateMutability": "view",
      "type": "function"
    },
    {
      "inputs": [],
      "name": "owner",
      "outputs": [
        {
          "internalType": "address",
          "name": "",
          "type": "address"
        }
      ],
      "stateMutability": "view",
      "type": "function"
    },
    {
      "inputs": [],
      "name": "renounceOwnership",
      "outputs": [],
      "stateMutability": "nonpayable",
      "type": "function"
    },
    {
      "inputs": [
        {
          "internalType": "address",
          "name": "newOwner",
          "type": "address"
        }
      ],
      "name": "transferOwnership",
      "outputs": [],
      "stateMutability": "nonpayable",
      "type": "function"
    }
  ],
  "bytecode": "0x608060405234801561001057600080fd5b50611914806100206000396000f3fe608060405234801561001057600080fd5b506004361061010b5760003560e01c80638da5cb5b116100a2578063e1f21c6711610071578063e1f21c6714610226578063e28f765c14610239578063f2fde38b1461024c578063f437bc591461025f578063f8c8765e1461027257600080fd5b80638da5cb5b146101c9578063bf7788a7146101da578063c9426884146101ed578063d86ed3e51461021357600080fd5b80635f9e7d77116100de5780635f9e7d7714610186578063715018a6146101995780637164b8bf146101a3578063884d1f40146101b657600080fd5b80631054df8c14610110578063230dbd291461014057806330d9c9151461016057806353c11f9914610173575b600080fd5b606654610123906001600160a01b031681565b6040516001600160a01b0390911681526020015b60405180910390f35b61015361014e366004611077565b610285565b6040516101379190611166565b61015361016e366004611199565b6104c3565b610153610181366004611077565b61052b565b610153610194366004611199565b6106a7565b6101a161070e565b005b606954610123906001600160a01b031681565b6101536101c4366004611199565b610722565b6033546001600160a01b0316610123565b606754610123906001600160a01b031681565b6102006101fb366004611238565b610779565b604051600b9190910b8152602001610137565b610153610221366004611077565b61078c565b6101a1610234366004611271565b6109c8565b606854610123906001600160a01b031681565b6101a161025a3660046112b2565b610a49565b606554610123906001600160a01b031681565b6101a16102803660046112cf565b610ac2565b6065546060906001600160a01b031633146102b357604051638ff4f0c960e01b815260040160405180910390fd5b6102bc89610d89565b6102d9576040516365e170d960e01b815260040160405180910390fd5b82828080601f01602080910402602001604051908101604052809392919081815260200183838082843760009201919091525092935061031c9250610feb915050565b606554604051631fb6491d60e11b81526001600160a01b0390911690633f6c923a9061034e908790879060040161132b565b600060405180830381865afa15801561036b573d6000803e3d6000fd5b505050506040513d6000823e601f3d908101601f191682016040526103939190810190611493565b60a001518060200190518101906103aa9190611648565b6020830152808252511580156103c35750602081015151155b156103e157604051634c9d076b60e01b815260040160405180910390fd5b6103ed858701876116bb565b6001600160a01b031660408301819052600b9190910b6060830152610413908c90610e15565b8160800190600b0b9081600b0b81525050606960009054906101000a90046001600160a01b03166001600160a01b031663f84b25758c836040015184600001518560200151866060015187608001516040518763ffffffff1660e01b81526004016104839695949392919061172a565b600060405180830381600087803b15801561049d57600080fd5b505af11580156104b1573d6000803e3d6000fd5b50505050509998505050505050505050565b60405162461bcd60e51b815260206004820152602f60248201527f556e737570706f727465642063616c6c6261636b202d204265666f726520416760448201526e1c99595b595b9d0810dc99585d1959608a1b60648201526060906084015b60405180910390fd5b6065546060906001600160a01b0316331461055957604051638ff4f0c960e01b815260040160405180910390fd5b6105628a610e9d565b1580610574575061057289610d89565b155b156105b85782828080601f01602080910402602001604051908101604052809392919081815260200183838082843760009201919091525092935061069a92505050565b60006105c48888610ecf565b6069546040516304f2885160e51b81526001600160a01b038e811660048301528084166024830152929350911690639e510a2090604401600060405180830381600087803b15801561061557600080fd5b505af1925050508015610626575060015b61065f576040516001600160a01b038216907f1afd11d74e4d4de865007dd1dd73297d45c2c4651efaa0367112b9627adb9f5f90600090a25b83838080601f016020809104026020016040519081016040528093929190818152602001838380828437600092019190915250929450505050505b9998505050505050505050565b60405162461bcd60e51b815260206004820152603360248201527f556e737570706f727465642063616c6c6261636b202d20204265666f7265204160448201527219dc99595b595b9d0815195c9b5a5b985d1959606a1b6064820152606090608401610522565b610716610ee5565b6107206000610f3f565b565b606060006107308686610ecf565b905061073c8982610e15565b60408051600b9290920b60208301526001600160a01b03831690820152606001604051602081830303815290604052915050979650505050505050565b60006107858383610e15565b9392505050565b6065546060906001600160a01b031633146107ba57604051638ff4f0c960e01b815260040160405180910390fd5b89896107c582610e9d565b6107e25760405163134d673960e01b815260040160405180910390fd5b6107eb81610d89565b610808576040516365e170d960e01b815260040160405180910390fd5b84848080601f01602080910402602001604051908101604052809392919081815260200183838082843760009201919091525092955061084b9250610feb915050565b606554604051631fb6491d60e11b81526001600160a01b0390911690633f6c923a9061087d908990899060040161132b565b600060405180830381865afa15801561089a573d6000803e3d6000fd5b505050506040513d6000823e601f3d908101601f191682016040526108c29190810190611493565b60a001518060200190518101906108d99190611788565b808252516000036108fd57604051634c9d076b60e01b815260040160405180910390fd5b6109078a8a610ecf565b6001600160a01b031660408201819052610922908e90610e15565b8160800190600b0b9081600b0b81525050606960009054906101000a90046001600160a01b03166001600160a01b0316635a259fdb8e8360400151846000015185608001516040518563ffffffff1660e01b815260040161098694939291906117bd565b600060405180830381600087803b1580156109a057600080fd5b505af11580156109b4573d6000803e3d6000fd5b505050505050509998505050505050505050565b6109d0610ee5565b60405163095ea7b360e01b81526001600160a01b0383811660048301526024820183905284169063095ea7b3906044016020604051808303816000875af1158015610a1f573d6000803e3d6000fd5b505050506040513d601f19601f82011682018060405250810190610a4391906117fd565b50505050565b610a51610ee5565b6001600160a01b038116610ab65760405162461bcd60e51b815260206004820152602660248201527f4f776e61626c653a206e6577206f776e657220697320746865207a65726f206160448201526564647265737360d01b6064820152608401610522565b610abf81610f3f565b50565b600054610100900460ff1615808015610ae25750600054600160ff909116105b80610afc5750303b158015610afc575060005460ff166001145b610b5f5760405162461bcd60e51b815260206004820152602e60248201527f496e697469616c697a61626c653a20636f6e747261637420697320616c72656160448201526d191e481a5b9a5d1a585b1a5e995960921b6064820152608401610522565b6000805460ff191660011790558015610b82576000805461ff0019166101001790555b6001600160a01b0385161580610b9f57506001600160a01b038416155b80610bb157506001600160a01b038316155b80610bc357506001600160a01b038216155b15610be15760405163d92e233d60e01b815260040160405180910390fd5b606580546001600160a01b0319166001600160a01b038716908117909155604051635b69006f60e11b81527fa9214cc96615e0085d3bb077758db69497dc2dce3b2b1e97bc93c3d18d83efd3600482015263b6d200de90602401602060405180830381865afa158015610c58573d6000803e3d6000fd5b505050506040513d601f19601f82011682018060405250810190610c7c919061181f565b606680546001600160a01b03199081166001600160a01b0393841617909155606780548216878416179055606880548216868416179055606980549091168483161790556065546040805163bd1c448b60e01b81526411000000016004820152602481019190915260026044820152616b3160f01b606482015291169063bd1c448b90608401600060405180830381600087803b158015610d1c57600080fd5b505af1158015610d30573d6000803e3d6000fd5b50505050610d3c610f91565b8015610d82576000805461ff0019169055604051600181527f7f26b83ff96e1f2b6a682f133852f6798a09c465da95921460cefb38474024989060200160405180910390a15b5050505050565b60007fa9214cc96615e0085d3bb077758db69497dc2dce3b2b1e97bc93c3d18d83efd3826001600160a01b0316637730599e6040518163ffffffff1660e01b8152600401602060405180830381865afa158015610dea573d6000803e3d6000fd5b505050506040513d601f19601f82011682018060405250810190610e0e919061183c565b1492915050565b606654604051631cd43d1160e31b81526001600160a01b0384811660048301528381166024830152306044830152600092169063e6a1e88890606401608060405180830381865afa158015610e6e573d6000803e3d6000fd5b505050506040513d601f19601f82011682018060405250810190610e929190611855565b509095945050505050565b6067546000906001600160a01b0383811691161480610ec957506068546001600160a01b038381169116145b92915050565b6000610edd82840184611238565b509392505050565b6033546001600160a01b031633146107205760405162461bcd60e51b815260206004820181905260248201527f4f776e61626c653a2063616c6c6572206973206e6f7420746865206f776e65726044820152606401610522565b603380546001600160a01b038381166001600160a01b0319831681179093556040519116919082907f8be0079c531659141344cd1fd0a4f28419497f9722a3daafe3b4186f6b6457e090600090a35050565b600054610100900460ff16610fb85760405162461bcd60e51b815260040161052290611893565b610720600054610100900460ff16610fe25760405162461bcd60e51b815260040161052290611893565b61072033610f3f565b6040805160a08101825260608082526020820181905260009282018390528101829052608081019190915290565b6001600160a01b0381168114610abf57600080fd5b60008083601f84011261104057600080fd5b50813567ffffffffffffffff81111561105857600080fd5b60208301915083602082850101111561107057600080fd5b9250929050565b600080600080600080600080600060c08a8c03121561109557600080fd5b89356110a081611019565b985060208a01356110b081611019565b975060408a0135965060608a013567ffffffffffffffff808211156110d457600080fd5b6110e08d838e0161102e565b909850965060808c01359150808211156110f957600080fd5b6111058d838e0161102e565b909650945060a08c013591508082111561111e57600080fd5b5061112b8c828d0161102e565b915080935050809150509295985092959850929598565b60005b8381101561115d578181015183820152602001611145565b50506000910152565b6020815260008251806020840152611185816040850160208701611142565b601f01601f19169190910160400192915050565b600080600080600080600060a0888a0312156111b457600080fd5b87356111bf81611019565b965060208801356111cf81611019565b955060408801359450606088013567ffffffffffffffff808211156111f357600080fd5b6111ff8b838c0161102e565b909650945060808a013591508082111561121857600080fd5b506112258a828b0161102e565b989b979a50959850939692959293505050565b6000806040838503121561124b57600080fd5b823561125681611019565b9150602083013561126681611019565b809150509250929050565b60008060006060848603121561128657600080fd5b833561129181611019565b925060208401356112a181611019565b929592945050506040919091013590565b6000602082840312156112c457600080fd5b813561078581611019565b600080600080608085870312156112e557600080fd5b84356112f081611019565b9350602085013561130081611019565b9250604085013561131081611019565b9150606085013561132081611019565b939692955090935050565b60208152816020820152818360408301376000818301604090810191909152601f909201601f19160101919050565b634e487b7160e01b600052604160045260246000fd5b604051610160810167ffffffffffffffff811182821017156113945761139461135a565b60405290565b6040516060810167ffffffffffffffff811182821017156113945761139461135a565b604051601f8201601f1916810167ffffffffffffffff811182821017156113e6576113e661135a565b604052919050565b805160ff811681146113ff57600080fd5b919050565b80516113ff81611019565b80516001600160e01b0319811681146113ff57600080fd5b600082601f83011261143857600080fd5b815167ffffffffffffffff8111156114525761145261135a565b611465601f8201601f19166020016113bd565b81815284602083860101111561147a57600080fd5b61148b826020830160208701611142565b949350505050565b6000602082840312156114a557600080fd5b815167ffffffffffffffff808211156114bd57600080fd5b9083019061016082860312156114d257600080fd5b6114da611370565b6114e3836113ee565b81526114f1602084016113ee565b60208201526040830151604082015261150c60608401611404565b606082015261151d6080840161140f565b608082015260a08301518281111561153457600080fd5b61154087828601611427565b60a08301525060c083015160c082015260e083015160e0820152610100915081830151828201526101209150611577828401611404565b82820152610140915061158b828401611404565b91810191909152949350505050565b600082601f8301126115ab57600080fd5b8151602067ffffffffffffffff8211156115c7576115c761135a565b6115d5818360051b016113bd565b828152606092830285018201928282019190878511156115f457600080fd5b8387015b8581101561163b5781818a0312156116105760008081fd5b61161861139a565b8151815285820151868201526040808301519082015284529284019281016115f8565b5090979650505050505050565b6000806040838503121561165b57600080fd5b825167ffffffffffffffff8082111561167357600080fd5b61167f8683870161159a565b9350602085015191508082111561169557600080fd5b506116a28582860161159a565b9150509250929050565b80600b0b8114610abf57600080fd5b600080604083850312156116ce57600080fd5b8235611256816116ac565b600081518084526020808501945080840160005b8381101561171f57815180518852838101518489015260409081015190880152606090960195908201906001016116ed565b509495945050505050565b6001600160a01b0387811682528616602082015260c060408201819052600090611756908301876116d9565b828103606084015261176881876116d9565b91505083600b0b608083015282600b0b60a0830152979650505050505050565b60006020828403121561179a57600080fd5b815167ffffffffffffffff8111156117b157600080fd5b61148b8482850161159a565b6001600160a01b038581168252841660208201526080604082018190526000906117e9908301856116d9565b905082600b0b606083015295945050505050565b60006020828403121561180f57600080fd5b8151801515811461078557600080fd5b60006020828403121561183157600080fd5b815161078581611019565b60006020828403121561184e57600080fd5b5051919050565b6000806000806080858703121561186b57600080fd5b84519350602085015161187d816116ac565b6040860151606090960151949790965092505050565b6020808252602b908201527f496e697469616c697a61626c653a20636f6e7472616374206973206e6f74206960408201526a6e697469616c697a696e6760a81b60608201526080019056fea2646970667358221220c361b4ac8d0dea87bc53a38b9aca86a3346afbd875a6479ba479f60cd241efd264736f6c63430008110033",
  "linkReferences": {},
  "deployedLinkReferences": {}
}