{
  "_format": "hh-sol-artifact-1",
  "contractName": "GoldLiteProxy",
  "sourceName": "src/SuperToken/GoldLiteProxy.sol",
  "abi": [
    {
      "inputs": [],
      "name": "Initialized",
      "type": "error"
    },
    {
      "inputs": [
        {
          "internalType": "address",
          "name": "_caller",
          "type": "address"
        }
      ],
      "name": "TM__NotTrusted",
      "type": "error"
    },
    {
      "inputs": [],
      "name": "ZeroAddress",
      "type": "error"
    },
    {
      "anonymous": false,
      "inputs": [
        {
          "indexed": true,
          "internalType": "address",
          "name": "previousOwner",
          "type": "address"
        },
        {
          "indexed": true,
          "internalType": "address",
          "name": "newOwner",
          "type": "address"
        }
      ],
      "name": "OwnershipTransferred",
      "type": "event"
    },
    {
      "stateMutability": "payable",
      "type": "fallback"
    },
    {
      "inputs": [
        {
          "internalType": "address",
          "name": "factory",
          "type": "address"
        },
        {
          "internalType": "string",
          "name": "name",
          "type": "string"
        },
        {
          "internalType": "string",
          "name": "symbol",
          "type": "string"
        },
        {
          "internalType": "address",
          "name": "owner",
          "type": "address"
        }
      ],
      "name": "initialize",
      "outputs": [],
      "stateMutability": "nonpayable",
      "type": "function"
    },
    {
      "inputs": [
        {
          "internalType": "address",
          "name": "initialAddress",
          "type": "address"
        }
      ],
      "name": "initializeProxy",
      "outputs": [],
      "stateMutability": "nonpayable",
      "type": "function"
    },
    {
      "inputs": [
        {
          "internalType": "address",
          "name": "_trusted",
          "type": "address"
        }
      ],
      "name": "isTrusted",
      "outputs": [
        {
          "internalType": "bool",
          "name": "",
          "type": "bool"
        }
      ],
      "stateMutability": "view",
      "type": "function"
    },
    {
      "inputs": [],
      "name": "owner",
      "outputs": [
        {
          "internalType": "address",
          "name": "",
          "type": "address"
        }
      ],
      "stateMutability": "view",
      "type": "function"
    },
    {
      "inputs": [],
      "name": "renounceOwnership",
      "outputs": [],
      "stateMutability": "nonpayable",
      "type": "function"
    },
    {
      "inputs": [
        {
          "internalType": "address",
          "name": "_trusted",
          "type": "address"
        },
        {
          "internalType": "bool",
          "name": "_isTrusted",
          "type": "bool"
        }
      ],
      "name": "setTrusted",
      "outputs": [],
      "stateMutability": "nonpayable",
      "type": "function"
    },
    {
      "inputs": [
        {
          "internalType": "address",
          "name": "newOwner",
          "type": "address"
        }
      ],
      "name": "transferOwnership",
      "outputs": [],
      "stateMutability": "nonpayable",
      "type": "function"
    },
    {
      "inputs": [
        {
          "internalType": "address",
          "name": "_to",
          "type": "address"
        },
        {
          "internalType": "uint256[]",
          "name": "_tokenIds",
          "type": "uint256[]"
        },
        {
          "internalType": "uint256[]",
          "name": "_amounts",
          "type": "uint256[]"
        }
      ],
      "name": "trustedBatchMint",
      "outputs": [],
      "stateMutability": "nonpayable",
      "type": "function"
    },
    {
      "inputs": [
        {
          "internalType": "address",
          "name": "_to",
          "type": "address"
        },
        {
          "internalType": "uint256",
          "name": "",
          "type": "uint256"
        },
        {
          "internalType": "uint256",
          "name": "_amount",
          "type": "uint256"
        }
      ],
      "name": "trustedMint",
      "outputs": [],
      "stateMutability": "nonpayable",
      "type": "function"
    },
    {
      "stateMutability": "payable",
      "type": "receive"
    }
  ],
  "bytecode": "0x608060405234801561001057600080fd5b5061001a3361001f565b610071565b602080546001600160a01b038381166001600160a01b0319831681179093556040519116919082907f8be0079c531659141344cd1fd0a4f28419497f9722a3daafe3b4186f6b6457e090600090a35050565b61098a806100806000396000f3fe60806040526004361061008a5760003560e01c80638da5cb5b116100595780638da5cb5b1461011657806396d64879146101425780639e74b0e71461018b578063f2fde38b146101ab578063f32a12ac146101cb57610099565b80634a0687ef146100a157806353674f0e146100c1578063613d25bb146100e1578063715018a61461010157610099565b36610099576100976101eb565b005b6100976101eb565b3480156100ad57600080fd5b506100976100bc36600461060e565b61021d565b3480156100cd57600080fd5b506100976100dc366004610630565b6102b9565b3480156100ed57600080fd5b506100976100fc366004610706565b61030f565b34801561010d57600080fd5b5061009761034a565b34801561012257600080fd5b50602080546040516001600160a01b039091168152015b60405180910390f35b34801561014e57600080fd5b5061017b61015d36600461060e565b6001600160a01b031660009081526021602052604090205460ff1690565b6040519015158152602001610139565b34801561019757600080fd5b506100976101a63660046107d7565b61035c565b3480156101b757600080fd5b506100976101c636600461060e565b610395565b3480156101d757600080fd5b506100976101e6366004610858565b61040e565b61021b6102167f360894a13ba1a3210667c828492db98dca3e2076cc3735a920a3ca505d382bbc5490565b610441565b565b6001600160a01b0381166102445760405163d92e233d60e01b815260040160405180910390fd5b600061026e7f360894a13ba1a3210667c828492db98dca3e2076cc3735a920a3ca505d382bbc5490565b6001600160a01b031614610295576040516302ed543d60e51b815260040160405180910390fd5b7f360894a13ba1a3210667c828492db98dca3e2076cc3735a920a3ca505d382bbc55565b3360009081526021602052604090205460ff166102f057604051633947dc0960e21b81523360048201526024015b60405180910390fd5b61030a838260405180602001604052806000815250610465565b505050565b61031a8484846104c3565b61032381610395565b6001600160a01b03166000908152602160205260409020805460ff19166001179055505050565b610352610546565b61021b60006105a0565b3360009081526021602052604090205460ff1661038e57604051633947dc0960e21b81523360048201526024016102e7565b5050505050565b61039d610546565b6001600160a01b0381166104025760405162461bcd60e51b815260206004820152602660248201527f4f776e61626c653a206e6577206f776e657220697320746865207a65726f206160448201526564647265737360d01b60648201526084016102e7565b61040b816105a0565b50565b610416610546565b6001600160a01b03919091166000908152602160205260409020805460ff1916911515919091179055565b3660008037600080366000845af43d6000803e808015610460573d6000f35b3d6000fd5b60405163c68d428360e01b8152309063c68d42839061048c908690869086906004016108da565b600060405180830381600087803b1580156104a657600080fd5b505af11580156104ba573d6000803e3d6000fd5b50505050505050565b604051633504b4d160e21b81523060048201526001600160a01b0384169063d412d34490602401600060405180830381600087803b15801561050457600080fd5b505af1158015610518573d6000803e3d6000fd5b50506040516285fc1360e71b81523092506342fe0980915061048c906000906012908790879060040161090a565b6020546001600160a01b0316331461021b5760405162461bcd60e51b815260206004820181905260248201527f4f776e61626c653a2063616c6c6572206973206e6f7420746865206f776e657260448201526064016102e7565b602080546001600160a01b038381166001600160a01b0319831681179093556040519116919082907f8be0079c531659141344cd1fd0a4f28419497f9722a3daafe3b4186f6b6457e090600090a35050565b80356001600160a01b038116811461060957600080fd5b919050565b60006020828403121561062057600080fd5b610629826105f2565b9392505050565b60008060006060848603121561064557600080fd5b61064e846105f2565b95602085013595506040909401359392505050565b634e487b7160e01b600052604160045260246000fd5b600082601f83011261068a57600080fd5b813567ffffffffffffffff808211156106a5576106a5610663565b604051601f8301601f19908116603f011681019082821181831017156106cd576106cd610663565b816040528381528660208588010111156106e657600080fd5b836020870160208301376000602085830101528094505050505092915050565b6000806000806080858703121561071c57600080fd5b610725856105f2565b9350602085013567ffffffffffffffff8082111561074257600080fd5b61074e88838901610679565b9450604087013591508082111561076457600080fd5b5061077187828801610679565b925050610780606086016105f2565b905092959194509250565b60008083601f84011261079d57600080fd5b50813567ffffffffffffffff8111156107b557600080fd5b6020830191508360208260051b85010111156107d057600080fd5b9250929050565b6000806000806000606086880312156107ef57600080fd5b6107f8866105f2565b9450602086013567ffffffffffffffff8082111561081557600080fd5b61082189838a0161078b565b9096509450604088013591508082111561083a57600080fd5b506108478882890161078b565b969995985093965092949392505050565b6000806040838503121561086b57600080fd5b610874836105f2565b91506020830135801515811461088957600080fd5b809150509250929050565b6000815180845260005b818110156108ba5760208185018101518683018201520161089e565b506000602082860101526020601f19601f83011685010191505092915050565b60018060a01b03841681528260208201526060604082015260006109016060830184610894565b95945050505050565b6001600160a01b038516815260ff8416602082015260806040820181905260009061093790830185610894565b82810360608401526109498185610894565b97965050505050505056fea2646970667358221220c735e080d1497b41e5070fa66e2d8654673e3a38bfbd60a2a482808ad692fd0664736f6c63430008110033",
  "linkReferences": {},
  "deployedLinkReferences": {}
}